{
  "contractName": "Tasks",
  "abi": [
    {
      "inputs": [],
      "payable": false,
      "stateMutability": "nonpayable",
      "type": "constructor"
    },
    {
      "anonymous": false,
      "inputs": [
        {
          "indexed": false,
          "internalType": "string",
          "name": "_task",
          "type": "string"
        },
        {
          "indexed": false,
          "internalType": "uint256",
          "name": "id",
          "type": "uint256"
        },
        {
          "indexed": false,
          "internalType": "bool",
          "name": "completed",
          "type": "bool"
        },
        {
          "indexed": false,
          "internalType": "uint256",
          "name": "_value",
          "type": "uint256"
        }
      ],
      "name": "Taskadded",
      "type": "event"
    },
    {
      "anonymous": false,
      "inputs": [
        {
          "indexed": false,
          "internalType": "string",
          "name": "_task",
          "type": "string"
        },
        {
          "indexed": false,
          "internalType": "uint256",
          "name": "id",
          "type": "uint256"
        },
        {
          "indexed": false,
          "internalType": "bool",
          "name": "completed",
          "type": "bool"
        },
        {
          "indexed": false,
          "internalType": "uint256",
          "name": "_value",
          "type": "uint256"
        }
      ],
      "name": "tasktoggle",
      "type": "event"
    },
    {
      "constant": true,
      "inputs": [
        {
          "internalType": "address",
          "name": "",
          "type": "address"
        }
      ],
      "name": "value",
      "outputs": [
        {
          "internalType": "uint256",
          "name": "count",
          "type": "uint256"
        }
      ],
      "payable": false,
      "stateMutability": "view",
      "type": "function"
    },
    {
      "constant": true,
      "inputs": [
        {
          "internalType": "uint256",
          "name": "id",
          "type": "uint256"
        }
      ],
      "name": "getTask",
      "outputs": [
        {
          "internalType": "string",
          "name": "",
          "type": "string"
        }
      ],
      "payable": false,
      "stateMutability": "view",
      "type": "function"
    },
    {
      "constant": true,
      "inputs": [
        {
          "internalType": "uint256",
          "name": "id",
          "type": "uint256"
        }
      ],
      "name": "getCompleted",
      "outputs": [
        {
          "internalType": "bool",
          "name": "",
          "type": "bool"
        }
      ],
      "payable": false,
      "stateMutability": "view",
      "type": "function"
    },
    {
      "constant": true,
      "inputs": [
        {
          "internalType": "uint256",
          "name": "id",
          "type": "uint256"
        }
      ],
      "name": "getId",
      "outputs": [
        {
          "internalType": "uint256",
          "name": "",
          "type": "uint256"
        }
      ],
      "payable": false,
      "stateMutability": "view",
      "type": "function"
    },
    {
      "constant": false,
      "inputs": [
        {
          "internalType": "string",
          "name": "_task",
          "type": "string"
        }
      ],
      "name": "addTask",
      "outputs": [],
      "payable": false,
      "stateMutability": "nonpayable",
      "type": "function"
    },
    {
      "constant": false,
      "inputs": [
        {
          "internalType": "uint256",
          "name": "id",
          "type": "uint256"
        }
      ],
      "name": "toggleTask",
      "outputs": [],
      "payable": false,
      "stateMutability": "nonpayable",
      "type": "function"
    }
  ],
  "bytecode": "0x60806040523480156200001157600080fd5b50620000586040518060400160405280600481526020017f416d616e00000000000000000000000000000000000000000000000000000000815250620000a460201b60201c565b6200009e6040518060400160405280600281526020017f6f6b000000000000000000000000000000000000000000000000000000000000815250620000a460201b60201c565b620004f4565b620000ae62000432565b6000803373ffffffffffffffffffffffffffffffffffffffff1673ffffffffffffffffffffffffffffffffffffffff1681526020019081526020016000206040518060200160405290816000820154815250509050604051806060016040528060018360000151018152602001838152602001600015158152506000803373ffffffffffffffffffffffffffffffffffffffff1673ffffffffffffffffffffffffffffffffffffffff168152602001908152602001600020600101600060018460000151018152602001908152602001600020600082015181600001556020820151816001019080519060200190620001a992919062000445565b5060408201518160020160006101000a81548160ff021916908315150217905550905050604051806020016040528060018360000151018152506000803373ffffffffffffffffffffffffffffffffffffffff1673ffffffffffffffffffffffffffffffffffffffff168152602001908152602001600020600082015181600001559050507fc6f9c3420faf039d7163c45ad372fbb7c26cb89dfa27b7ebc10e64548067c6dd6000803373ffffffffffffffffffffffffffffffffffffffff1673ffffffffffffffffffffffffffffffffffffffff1681526020019081526020016000206001016000600184600001510181526020019081526020016000206001016000803373ffffffffffffffffffffffffffffffffffffffff1673ffffffffffffffffffffffffffffffffffffffff168152602001908152602001600020600101600060018560000151018152602001908152602001600020600001546000803373ffffffffffffffffffffffffffffffffffffffff1673ffffffffffffffffffffffffffffffffffffffff16815260200190815260200160002060010160006001866000015101815260200190815260200160002060020160009054906101000a900460ff1660018560000151016040518080602001858152602001841515151581526020018381526020018281038252868181546001816001161561010002031660029004815260200191508054600181600116156101000203166002900480156200041d5780601f10620003f1576101008083540402835291602001916200041d565b820191906000526020600020905b815481529060010190602001808311620003ff57829003601f168201915b50509550505050505060405180910390a15050565b6040518060200160405280600081525090565b828054600181600116156101000203166002900490600052602060002090601f016020900481019282601f106200048857805160ff1916838001178555620004b9565b82800160010185558215620004b9579182015b82811115620004b85782518255916020019190600101906200049b565b5b509050620004c89190620004cc565b5090565b620004f191905b80821115620004ed576000816000905550600101620004d3565b5090565b90565b610b7b80620005046000396000f3fe608060405234801561001057600080fd5b50600436106100625760003560e01c80631bfc269b146100675780631d65e77e146100ad578063545a153a14610154578063613137a41461019657806367238562146101c457806369f9d91c1461027f575b600080fd5b6100936004803603602081101561007d57600080fd5b81019080803590602001909291905050506102d7565b604051808215151515815260200191505060405180910390f35b6100d9600480360360208110156100c357600080fd5b8101908080359060200190929190505050610343565b6040518080602001828103825283818151815260200191508051906020019080838360005b838110156101195780820151818401526020810190506100fe565b50505050905090810190601f1680156101465780820380516001836020036101000a031916815260200191505b509250505060405180910390f35b6101806004803603602081101561016a57600080fd5b810190808035906020019092919050505061043a565b6040518082815260200191505060405180910390f35b6101c2600480360360208110156101ac57600080fd5b8101908080359060200190929190505050610499565b005b61027d600480360360208110156101da57600080fd5b81019080803590602001906401000000008111156101f757600080fd5b82018360208201111561020957600080fd5b8035906020019184600183028401116401000000008311171561022b57600080fd5b91908080601f016020809104026020016040519081016040528093929190818152602001838380828437600081840152601f19601f8201169050808301925050505050505091929192905050506106ea565b005b6102c16004803603602081101561029557600080fd5b81019080803573ffffffffffffffffffffffffffffffffffffffff169060200190929190505050610a70565b6040518082815260200191505060405180910390f35b60008060003373ffffffffffffffffffffffffffffffffffffffff1673ffffffffffffffffffffffffffffffffffffffff168152602001908152602001600020600101600083815260200190815260200160002060020160009054906101000a900460ff169050919050565b60606000803373ffffffffffffffffffffffffffffffffffffffff1673ffffffffffffffffffffffffffffffffffffffff16815260200190815260200160002060010160008381526020019081526020016000206001018054600181600116156101000203166002900480601f01602080910402602001604051908101604052809291908181526020018280546001816001161561010002031660029004801561042e5780601f106104035761010080835404028352916020019161042e565b820191906000526020600020905b81548152906001019060200180831161041157829003601f168201915b50505050509050919050565b60008060003373ffffffffffffffffffffffffffffffffffffffff1673ffffffffffffffffffffffffffffffffffffffff1681526020019081526020016000206001016000838152602001908152602001600020600001549050919050565b60016000803373ffffffffffffffffffffffffffffffffffffffff1673ffffffffffffffffffffffffffffffffffffffff168152602001908152602001600020600101600083815260200190815260200160002060020160006101000a81548160ff0219169083151502179055507fbcb6dd1da6c25d4f64b8160308fe955d98928ac2b46d02cce90d3e79726fddea6000803373ffffffffffffffffffffffffffffffffffffffff1673ffffffffffffffffffffffffffffffffffffffff16815260200190815260200160002060010160008381526020019081526020016000206001016000803373ffffffffffffffffffffffffffffffffffffffff1673ffffffffffffffffffffffffffffffffffffffff1681526020019081526020016000206001016000848152602001908152602001600020600001546000803373ffffffffffffffffffffffffffffffffffffffff1673ffffffffffffffffffffffffffffffffffffffff168152602001908152602001600020600101600085815260200190815260200160002060020160009054906101000a900460ff16846040518080602001858152602001841515151581526020018381526020018281038252868181546001816001161561010002031660029004815260200191508054600181600116156101000203166002900480156106d65780601f106106ab576101008083540402835291602001916106d6565b820191906000526020600020905b8154815290600101906020018083116106b957829003601f168201915b50509550505050505060405180910390a150565b6106f2610a8e565b6000803373ffffffffffffffffffffffffffffffffffffffff1673ffffffffffffffffffffffffffffffffffffffff1681526020019081526020016000206040518060200160405290816000820154815250509050604051806060016040528060018360000151018152602001838152602001600015158152506000803373ffffffffffffffffffffffffffffffffffffffff1673ffffffffffffffffffffffffffffffffffffffff1681526020019081526020016000206001016000600184600001510181526020019081526020016000206000820151816000015560208201518160010190805190602001906107eb929190610aa1565b5060408201518160020160006101000a81548160ff021916908315150217905550905050604051806020016040528060018360000151018152506000803373ffffffffffffffffffffffffffffffffffffffff1673ffffffffffffffffffffffffffffffffffffffff168152602001908152602001600020600082015181600001559050507fc6f9c3420faf039d7163c45ad372fbb7c26cb89dfa27b7ebc10e64548067c6dd6000803373ffffffffffffffffffffffffffffffffffffffff1673ffffffffffffffffffffffffffffffffffffffff1681526020019081526020016000206001016000600184600001510181526020019081526020016000206001016000803373ffffffffffffffffffffffffffffffffffffffff1673ffffffffffffffffffffffffffffffffffffffff168152602001908152602001600020600101600060018560000151018152602001908152602001600020600001546000803373ffffffffffffffffffffffffffffffffffffffff1673ffffffffffffffffffffffffffffffffffffffff16815260200190815260200160002060010160006001866000015101815260200190815260200160002060020160009054906101000a900460ff166001856000015101604051808060200185815260200184151515158152602001838152602001828103825286818154600181600116156101000203166002900481526020019150805460018160011615610100020316600290048015610a5b5780601f10610a3057610100808354040283529160200191610a5b565b820191906000526020600020905b815481529060010190602001808311610a3e57829003601f168201915b50509550505050505060405180910390a15050565b60006020528060005260406000206000915090508060000154905081565b6040518060200160405280600081525090565b828054600181600116156101000203166002900490600052602060002090601f016020900481019282601f10610ae257805160ff1916838001178555610b10565b82800160010185558215610b10579182015b82811115610b0f578251825591602001919060010190610af4565b5b509050610b1d9190610b21565b5090565b610b4391905b80821115610b3f576000816000905550600101610b27565b5090565b9056fea265627a7a72315820ff6781db074d11d98f535c4df51c96bcede59f8addc5fdd2e3361056262a390664736f6c63430005100032",
  "source": "pragma solidity >=0.4.21 <0.7.0;\n\n\ncontract Tasks {\n\n\tstruct TaskList{\n\t\tuint id;\n\t\tstring task;\n\t\tbool completed;\n\t}\n\tstruct Info{\n\t\tuint count;\n\t\tmapping (uint => TaskList) task;\n\t}\n\tconstructor () public{\n\t\taddTask('Aman');\n\t\taddTask('ok');\n\t}\n\t//\n\t// mapping[address] =>info\n\t// address info { count and mapping[cout]=>list }   \n\t/*\n\t\tList\n\t\tid\n\t\tstring\n\t\tcompleted\n\t*/\n\tevent Taskadded(string _task ,uint id , bool completed ,  uint _value);\n\tevent tasktoggle(string _task ,uint id , bool completed ,  uint _value);\n\tmapping (address => Info)  public value;\n\tfunction getTask(uint id) public view  returns (string memory){\n\t\t\treturn value[msg.sender].task[id].task;\n\t}\n\tfunction getCompleted(uint id) public view  returns (bool){\n\t\t\treturn value[msg.sender].task[id].completed;\n\t}\n\tfunction getId(uint id) public view  returns (uint){\n\t\t\treturn value[msg.sender].task[id].id;\n\t}\n\tfunction addTask(string memory _task) public{\n\t\tInfo memory info;\n\t\tinfo  =  value[msg.sender];\n\t\tvalue[msg.sender].task[info.count+1] = TaskList(info.count+1 , _task, false);\n\t\tvalue[msg.sender] = Info(info.count+1);\n\t\temit Taskadded(value[msg.sender].task[info.count+1].task , value[msg.sender].task[info.count+1].id , value[msg.sender].task[info.count+1].completed , info.count+1);\n\t}\n\tfunction toggleTask(uint id) public {\n\t\tvalue[msg.sender].task[id].completed= true;\n\t\temit tasktoggle(value[msg.sender].task[id].task , value[msg.sender].task[id].id , value[msg.sender].task[id].completed , id);\n\t}\n\t/*\n\tfunction getBalanceInEth(address addr) public view returns(uint){\n\t\treturn ConvertLib.convert(getBalance(addr),2);\n\t}\n\n\tfunction getBalance(address addr) public view returns(uint) {\n\t\treturn balances[addr];\n\t}*/\n}\n",
  "sourcePath": "/home/aman/Desktop/FileManagementApp/contracts/Tasks.sol",
  "compiler": {
    "name": "solc",
    "version": "0.5.16+commit.9c3226ce.Emscripten.clang"
  },
  "schemaVersion": "3.2.0",
  "updatedAt": "2020-06-29T19:12:55.785Z",
  "networkType": "ethereum",
  "devdoc": {
    "methods": {}
  },
  "userdoc": {
    "methods": {}
  }
}