{
  "contractName": "Tasks",
  "abi": [
    {
      "inputs": [],
      "payable": false,
      "stateMutability": "nonpayable",
      "type": "constructor"
    },
    {
      "anonymous": false,
      "inputs": [
        {
          "indexed": false,
          "internalType": "string",
          "name": "_task",
          "type": "string"
        },
        {
          "indexed": false,
          "internalType": "uint256",
          "name": "id",
          "type": "uint256"
        },
        {
          "indexed": false,
          "internalType": "bool",
          "name": "completed",
          "type": "bool"
        },
        {
          "indexed": false,
          "internalType": "uint256",
          "name": "_value",
          "type": "uint256"
        }
      ],
      "name": "Taskadded",
      "type": "event"
    },
    {
      "anonymous": false,
      "inputs": [
        {
          "indexed": false,
          "internalType": "string",
          "name": "_task",
          "type": "string"
        },
        {
          "indexed": false,
          "internalType": "uint256",
          "name": "id",
          "type": "uint256"
        },
        {
          "indexed": false,
          "internalType": "bool",
          "name": "completed",
          "type": "bool"
        },
        {
          "indexed": false,
          "internalType": "uint256",
          "name": "_value",
          "type": "uint256"
        }
      ],
      "name": "tasktoggle",
      "type": "event"
    },
    {
      "constant": true,
      "inputs": [
        {
          "internalType": "address",
          "name": "",
          "type": "address"
        }
      ],
      "name": "value",
      "outputs": [
        {
          "internalType": "uint256",
          "name": "count",
          "type": "uint256"
        }
      ],
      "payable": false,
      "stateMutability": "view",
      "type": "function"
    },
    {
      "constant": true,
      "inputs": [
        {
          "internalType": "uint256",
          "name": "id",
          "type": "uint256"
        }
      ],
      "name": "getTask",
      "outputs": [
        {
          "internalType": "string",
          "name": "",
          "type": "string"
        }
      ],
      "payable": false,
      "stateMutability": "view",
      "type": "function"
    },
    {
      "constant": true,
      "inputs": [
        {
          "internalType": "uint256",
          "name": "id",
          "type": "uint256"
        }
      ],
      "name": "getCompleted",
      "outputs": [
        {
          "internalType": "bool",
          "name": "",
          "type": "bool"
        }
      ],
      "payable": false,
      "stateMutability": "view",
      "type": "function"
    },
    {
      "constant": false,
      "inputs": [
        {
          "internalType": "string",
          "name": "_task",
          "type": "string"
        }
      ],
      "name": "addTask",
      "outputs": [],
      "payable": false,
      "stateMutability": "nonpayable",
      "type": "function"
    },
    {
      "constant": false,
      "inputs": [
        {
          "internalType": "uint256",
          "name": "id",
          "type": "uint256"
        }
      ],
      "name": "toggleTask",
      "outputs": [],
      "payable": false,
      "stateMutability": "nonpayable",
      "type": "function"
    }
  ],
  "bytecode": "0x60806040523480156200001157600080fd5b50620000586040518060400160405280600481526020017f416d616e00000000000000000000000000000000000000000000000000000000815250620000a460201b60201c565b6200009e6040518060400160405280600281526020017f6f6b000000000000000000000000000000000000000000000000000000000000815250620000a460201b60201c565b620004f4565b620000ae62000432565b6000803373ffffffffffffffffffffffffffffffffffffffff1673ffffffffffffffffffffffffffffffffffffffff1681526020019081526020016000206040518060200160405290816000820154815250509050604051806060016040528060018360000151018152602001838152602001600015158152506000803373ffffffffffffffffffffffffffffffffffffffff1673ffffffffffffffffffffffffffffffffffffffff168152602001908152602001600020600101600060018460000151018152602001908152602001600020600082015181600001556020820151816001019080519060200190620001a992919062000445565b5060408201518160020160006101000a81548160ff021916908315150217905550905050604051806020016040528060018360000151018152506000803373ffffffffffffffffffffffffffffffffffffffff1673ffffffffffffffffffffffffffffffffffffffff168152602001908152602001600020600082015181600001559050507fc6f9c3420faf039d7163c45ad372fbb7c26cb89dfa27b7ebc10e64548067c6dd6000803373ffffffffffffffffffffffffffffffffffffffff1673ffffffffffffffffffffffffffffffffffffffff1681526020019081526020016000206001016000600184600001510181526020019081526020016000206001016000803373ffffffffffffffffffffffffffffffffffffffff1673ffffffffffffffffffffffffffffffffffffffff168152602001908152602001600020600101600060018560000151018152602001908152602001600020600001546000803373ffffffffffffffffffffffffffffffffffffffff1673ffffffffffffffffffffffffffffffffffffffff16815260200190815260200160002060010160006001866000015101815260200190815260200160002060020160009054906101000a900460ff1660018560000151016040518080602001858152602001841515151581526020018381526020018281038252868181546001816001161561010002031660029004815260200191508054600181600116156101000203166002900480156200041d5780601f10620003f1576101008083540402835291602001916200041d565b820191906000526020600020905b815481529060010190602001808311620003ff57829003601f168201915b50509550505050505060405180910390a15050565b6040518060200160405280600081525090565b828054600181600116156101000203166002900490600052602060002090601f016020900481019282601f106200048857805160ff1916838001178555620004b9565b82800160010185558215620004b9579182015b82811115620004b85782518255916020019190600101906200049b565b5b509050620004c89190620004cc565b5090565b620004f191905b80821115620004ed576000816000905550600101620004d3565b5090565b90565b610acf80620005046000396000f3fe608060405234801561001057600080fd5b50600436106100575760003560e01c80631bfc269b1461005c5780631d65e77e146100a2578063613137a414610149578063672385621461017757806369f9d91c14610232575b600080fd5b6100886004803603602081101561007257600080fd5b810190808035906020019092919050505061028a565b604051808215151515815260200191505060405180910390f35b6100ce600480360360208110156100b857600080fd5b81019080803590602001909291905050506102f6565b6040518080602001828103825283818151815260200191508051906020019080838360005b8381101561010e5780820151818401526020810190506100f3565b50505050905090810190601f16801561013b5780820380516001836020036101000a031916815260200191505b509250505060405180910390f35b6101756004803603602081101561015f57600080fd5b81019080803590602001909291905050506103ed565b005b6102306004803603602081101561018d57600080fd5b81019080803590602001906401000000008111156101aa57600080fd5b8201836020820111156101bc57600080fd5b803590602001918460018302840111640100000000831117156101de57600080fd5b91908080601f016020809104026020016040519081016040528093929190818152602001838380828437600081840152601f19601f82011690508083019250505050505050919291929050505061063e565b005b6102746004803603602081101561024857600080fd5b81019080803573ffffffffffffffffffffffffffffffffffffffff1690602001909291905050506109c4565b6040518082815260200191505060405180910390f35b60008060003373ffffffffffffffffffffffffffffffffffffffff1673ffffffffffffffffffffffffffffffffffffffff168152602001908152602001600020600101600083815260200190815260200160002060020160009054906101000a900460ff169050919050565b60606000803373ffffffffffffffffffffffffffffffffffffffff1673ffffffffffffffffffffffffffffffffffffffff16815260200190815260200160002060010160008381526020019081526020016000206001018054600181600116156101000203166002900480601f0160208091040260200160405190810160405280929190818152602001828054600181600116156101000203166002900480156103e15780601f106103b6576101008083540402835291602001916103e1565b820191906000526020600020905b8154815290600101906020018083116103c457829003601f168201915b50505050509050919050565b60016000803373ffffffffffffffffffffffffffffffffffffffff1673ffffffffffffffffffffffffffffffffffffffff168152602001908152602001600020600101600083815260200190815260200160002060020160006101000a81548160ff0219169083151502179055507fbcb6dd1da6c25d4f64b8160308fe955d98928ac2b46d02cce90d3e79726fddea6000803373ffffffffffffffffffffffffffffffffffffffff1673ffffffffffffffffffffffffffffffffffffffff16815260200190815260200160002060010160008381526020019081526020016000206001016000803373ffffffffffffffffffffffffffffffffffffffff1673ffffffffffffffffffffffffffffffffffffffff1681526020019081526020016000206001016000848152602001908152602001600020600001546000803373ffffffffffffffffffffffffffffffffffffffff1673ffffffffffffffffffffffffffffffffffffffff168152602001908152602001600020600101600085815260200190815260200160002060020160009054906101000a900460ff168460405180806020018581526020018415151515815260200183815260200182810382528681815460018160011615610100020316600290048152602001915080546001816001161561010002031660029004801561062a5780601f106105ff5761010080835404028352916020019161062a565b820191906000526020600020905b81548152906001019060200180831161060d57829003601f168201915b50509550505050505060405180910390a150565b6106466109e2565b6000803373ffffffffffffffffffffffffffffffffffffffff1673ffffffffffffffffffffffffffffffffffffffff1681526020019081526020016000206040518060200160405290816000820154815250509050604051806060016040528060018360000151018152602001838152602001600015158152506000803373ffffffffffffffffffffffffffffffffffffffff1673ffffffffffffffffffffffffffffffffffffffff16815260200190815260200160002060010160006001846000015101815260200190815260200160002060008201518160000155602082015181600101908051906020019061073f9291906109f5565b5060408201518160020160006101000a81548160ff021916908315150217905550905050604051806020016040528060018360000151018152506000803373ffffffffffffffffffffffffffffffffffffffff1673ffffffffffffffffffffffffffffffffffffffff168152602001908152602001600020600082015181600001559050507fc6f9c3420faf039d7163c45ad372fbb7c26cb89dfa27b7ebc10e64548067c6dd6000803373ffffffffffffffffffffffffffffffffffffffff1673ffffffffffffffffffffffffffffffffffffffff1681526020019081526020016000206001016000600184600001510181526020019081526020016000206001016000803373ffffffffffffffffffffffffffffffffffffffff1673ffffffffffffffffffffffffffffffffffffffff168152602001908152602001600020600101600060018560000151018152602001908152602001600020600001546000803373ffffffffffffffffffffffffffffffffffffffff1673ffffffffffffffffffffffffffffffffffffffff16815260200190815260200160002060010160006001866000015101815260200190815260200160002060020160009054906101000a900460ff1660018560000151016040518080602001858152602001841515151581526020018381526020018281038252868181546001816001161561010002031660029004815260200191508054600181600116156101000203166002900480156109af5780601f10610984576101008083540402835291602001916109af565b820191906000526020600020905b81548152906001019060200180831161099257829003601f168201915b50509550505050505060405180910390a15050565b60006020528060005260406000206000915090508060000154905081565b6040518060200160405280600081525090565b828054600181600116156101000203166002900490600052602060002090601f016020900481019282601f10610a3657805160ff1916838001178555610a64565b82800160010185558215610a64579182015b82811115610a63578251825591602001919060010190610a48565b5b509050610a719190610a75565b5090565b610a9791905b80821115610a93576000816000905550600101610a7b565b5090565b9056fea265627a7a72315820e195e23b65ce7ccbf05cd53b4d3bc1232e12f85bcd026c10b6f9764fe8c8c95b64736f6c63430005100032",
  "source": "pragma solidity >=0.4.21 <0.7.0;\n\n\ncontract Tasks {\n\n\tstruct TaskList{\n\t\tuint id;\n\t\tstring task;\n\t\tbool completed;\n\t}\n\tstruct Info{\n\t\tuint count;\n\t\tmapping (uint => TaskList) task;\n\t}\n\tconstructor () public{\n\t\taddTask('Aman');\n\t\taddTask('ok');\n\t}\n\t//\n\t// mapping[address] =>info\n\t// address info { count and mapping[cout]=>list }   \n\t/*\n\t\tList\n\t\tid\n\t\tstring\n\t\tcompleted\n\t*/\n\tevent Taskadded(string _task ,uint id , bool completed ,  uint _value);\n\tevent tasktoggle(string _task ,uint id , bool completed ,  uint _value);\n\tmapping (address => Info)  public value;\n\tfunction getTask(uint id) public view  returns (string memory){\n\t\t\treturn value[msg.sender].task[id].task;\n\t}\n\tfunction getCompleted(uint id) public view  returns (bool){\n\t\t\treturn value[msg.sender].task[id].completed;\n\t}\n\tfunction addTask(string memory _task) public{\n\t\tInfo memory info;\n\t\tinfo  =  value[msg.sender];\n\t\tvalue[msg.sender].task[info.count+1] = TaskList(info.count+1 , _task, false);\n\t\tvalue[msg.sender] = Info(info.count+1);\n\t\temit Taskadded(value[msg.sender].task[info.count+1].task , value[msg.sender].task[info.count+1].id , value[msg.sender].task[info.count+1].completed , info.count+1);\n\t}\n\tfunction toggleTask(uint id) public {\n\t\tvalue[msg.sender].task[id].completed= true;\n\t\temit tasktoggle(value[msg.sender].task[id].task , value[msg.sender].task[id].id , value[msg.sender].task[id].completed , id);\n\t}\n\t/*\n\tfunction getBalanceInEth(address addr) public view returns(uint){\n\t\treturn ConvertLib.convert(getBalance(addr),2);\n\t}\n\n\tfunction getBalance(address addr) public view returns(uint) {\n\t\treturn balances[addr];\n\t}*/\n}\n",
  "sourcePath": "/home/aman/Desktop/FileManagementApp/contracts/Tasks.sol",
  "compiler": {
    "name": "solc",
    "version": "0.5.16+commit.9c3226ce.Emscripten.clang"
  },
  "schemaVersion": "3.2.0",
  "updatedAt": "2020-06-29T13:39:55.353Z",
  "networkType": "ethereum",
  "devdoc": {
    "methods": {}
  },
  "userdoc": {
    "methods": {}
  }
}