{
  "contractName": "Tasks",
  "abi": [
    {
      "inputs": [],
      "payable": false,
      "stateMutability": "nonpayable",
      "type": "constructor"
    },
    {
      "anonymous": false,
      "inputs": [
        {
          "indexed": false,
          "internalType": "string",
          "name": "_task",
          "type": "string"
        },
        {
          "indexed": false,
          "internalType": "uint256",
          "name": "id",
          "type": "uint256"
        },
        {
          "indexed": false,
          "internalType": "bool",
          "name": "completed",
          "type": "bool"
        },
        {
          "indexed": false,
          "internalType": "uint256",
          "name": "_value",
          "type": "uint256"
        }
      ],
      "name": "Taskadded",
      "type": "event"
    },
    {
      "anonymous": false,
      "inputs": [
        {
          "indexed": true,
          "internalType": "address",
          "name": "_from",
          "type": "address"
        },
        {
          "indexed": true,
          "internalType": "address",
          "name": "_to",
          "type": "address"
        },
        {
          "indexed": false,
          "internalType": "uint256",
          "name": "_value",
          "type": "uint256"
        }
      ],
      "name": "Transfer",
      "type": "event"
    },
    {
      "constant": true,
      "inputs": [
        {
          "internalType": "address",
          "name": "",
          "type": "address"
        }
      ],
      "name": "value",
      "outputs": [
        {
          "internalType": "uint256",
          "name": "count",
          "type": "uint256"
        }
      ],
      "payable": false,
      "stateMutability": "view",
      "type": "function"
    },
    {
      "constant": false,
      "inputs": [
        {
          "internalType": "string",
          "name": "_task",
          "type": "string"
        }
      ],
      "name": "addTask",
      "outputs": [],
      "payable": false,
      "stateMutability": "nonpayable",
      "type": "function"
    }
  ],
  "bytecode": "0x608060405234801561001057600080fd5b506100556040518060400160405280600481526020017f416d616e0000000000000000000000000000000000000000000000000000000081525061009e60201b60201c565b6100996040518060400160405280600281526020017f6f6b00000000000000000000000000000000000000000000000000000000000081525061009e60201b60201c565b6104ca565b6100a6610412565b6000803373ffffffffffffffffffffffffffffffffffffffff1673ffffffffffffffffffffffffffffffffffffffff1681526020019081526020016000206040518060200160405290816000820154815250509050604051806060016040528060018360000151018152602001838152602001600015158152506000803373ffffffffffffffffffffffffffffffffffffffff1673ffffffffffffffffffffffffffffffffffffffff16815260200190815260200160002060010160006001846000015101815260200190815260200160002060008201518160000155602082015181600101908051906020019061019f929190610425565b5060408201518160020160006101000a81548160ff021916908315150217905550905050604051806020016040528060018360000151018152506000803373ffffffffffffffffffffffffffffffffffffffff1673ffffffffffffffffffffffffffffffffffffffff168152602001908152602001600020600082015181600001559050507fc6f9c3420faf039d7163c45ad372fbb7c26cb89dfa27b7ebc10e64548067c6dd6000803373ffffffffffffffffffffffffffffffffffffffff1673ffffffffffffffffffffffffffffffffffffffff1681526020019081526020016000206001016000600281526020019081526020016000206001016000803373ffffffffffffffffffffffffffffffffffffffff1673ffffffffffffffffffffffffffffffffffffffff168152602001908152602001600020600101600060028152602001908152602001600020600001546000803373ffffffffffffffffffffffffffffffffffffffff1673ffffffffffffffffffffffffffffffffffffffff16815260200190815260200160002060010160006002815260200190815260200160002060020160009054906101000a900460ff1660018560000151016040518080602001858152602001841515151581526020018381526020018281038252868181546001816001161561010002031660029004815260200191508054600181600116156101000203166002900480156103fd5780601f106103d2576101008083540402835291602001916103fd565b820191906000526020600020905b8154815290600101906020018083116103e057829003601f168201915b50509550505050505060405180910390a15050565b6040518060200160405280600081525090565b828054600181600116156101000203166002900490600052602060002090601f016020900481019282601f1061046657805160ff1916838001178555610494565b82800160010185558215610494579182015b82811115610493578251825591602001919060010190610478565b5b5090506104a191906104a5565b5090565b6104c791905b808211156104c35760008160009055506001016104ab565b5090565b90565b6105cd806104d96000396000f3fe608060405234801561001057600080fd5b50600436106100365760003560e01c8063672385621461003b57806369f9d91c146100f6575b600080fd5b6100f46004803603602081101561005157600080fd5b810190808035906020019064010000000081111561006e57600080fd5b82018360208201111561008057600080fd5b803590602001918460018302840111640100000000831117156100a257600080fd5b91908080601f016020809104026020016040519081016040528093929190818152602001838380828437600081840152601f19601f82011690508083019250505050505050919291929050505061014e565b005b6101386004803603602081101561010c57600080fd5b81019080803573ffffffffffffffffffffffffffffffffffffffff1690602001909291905050506104c2565b6040518082815260200191505060405180910390f35b6101566104e0565b6000803373ffffffffffffffffffffffffffffffffffffffff1673ffffffffffffffffffffffffffffffffffffffff1681526020019081526020016000206040518060200160405290816000820154815250509050604051806060016040528060018360000151018152602001838152602001600015158152506000803373ffffffffffffffffffffffffffffffffffffffff1673ffffffffffffffffffffffffffffffffffffffff16815260200190815260200160002060010160006001846000015101815260200190815260200160002060008201518160000155602082015181600101908051906020019061024f9291906104f3565b5060408201518160020160006101000a81548160ff021916908315150217905550905050604051806020016040528060018360000151018152506000803373ffffffffffffffffffffffffffffffffffffffff1673ffffffffffffffffffffffffffffffffffffffff168152602001908152602001600020600082015181600001559050507fc6f9c3420faf039d7163c45ad372fbb7c26cb89dfa27b7ebc10e64548067c6dd6000803373ffffffffffffffffffffffffffffffffffffffff1673ffffffffffffffffffffffffffffffffffffffff1681526020019081526020016000206001016000600281526020019081526020016000206001016000803373ffffffffffffffffffffffffffffffffffffffff1673ffffffffffffffffffffffffffffffffffffffff168152602001908152602001600020600101600060028152602001908152602001600020600001546000803373ffffffffffffffffffffffffffffffffffffffff1673ffffffffffffffffffffffffffffffffffffffff16815260200190815260200160002060010160006002815260200190815260200160002060020160009054906101000a900460ff1660018560000151016040518080602001858152602001841515151581526020018381526020018281038252868181546001816001161561010002031660029004815260200191508054600181600116156101000203166002900480156104ad5780601f10610482576101008083540402835291602001916104ad565b820191906000526020600020905b81548152906001019060200180831161049057829003601f168201915b50509550505050505060405180910390a15050565b60006020528060005260406000206000915090508060000154905081565b6040518060200160405280600081525090565b828054600181600116156101000203166002900490600052602060002090601f016020900481019282601f1061053457805160ff1916838001178555610562565b82800160010185558215610562579182015b82811115610561578251825591602001919060010190610546565b5b50905061056f9190610573565b5090565b61059591905b80821115610591576000816000905550600101610579565b5090565b9056fea265627a7a723158200a009e080e01e125255f8916d765a5f76e04b740c7a4a7b54ab1aa29dc83bccd64736f6c63430005100032",
  "source": "pragma solidity >=0.4.21 <0.7.0;\n\n\ncontract Tasks {\n\n\tstruct TaskList{\n\t\tuint id;\n\t\tstring task;\n\t\tbool completed;\n\t}\n\tstruct Info{\n\t\tuint count;\n\t\tmapping (uint => TaskList) task;\n\t}\n\tconstructor () public{\n\t\taddTask('Aman');\n\t\taddTask('ok');\n\t}\n\t\n\t// mapping[address] =>info\n\t// address info { count and mapping[cout]=>list }   \n\t/*\n\t\tList\n\t\tid\n\t\tstring\n\t\tcompleted\n\t*/\n\tevent Taskadded(string _task ,uint id , bool completed ,  uint _value);\n\tmapping (address => Info)  public value;\n\n\tevent Transfer(address indexed _from, address indexed _to, uint256 _value);\n\n\t/*function sendCoin(address receiver, uint amount) public returns(bool sufficient) {\n\t\tif (balances[msg.sender] < amount) return false;\n\t\tbalances[msg.sender] -= amount;\n\t\tbalances[receiver] += amount;\n\t\temit Transfer(msg.sender, receiver, amount);\n\t\treturn true;\n\t}*/\n\tfunction addTask(string memory _task) public{\n\t\tInfo memory info;\n\t\tinfo  =  value[msg.sender];\n\t\tvalue[msg.sender].task[info.count+1] = TaskList(info.count+1 , _task, false);\n\t\tvalue[msg.sender] = Info(info.count+1);\n\t\temit Taskadded(value[msg.sender].task[2].task , value[msg.sender].task[2].id , value[msg.sender].task[2].completed , info.count+1);\n\t}\n\t/*\n\tfunction getBalanceInEth(address addr) public view returns(uint){\n\t\treturn ConvertLib.convert(getBalance(addr),2);\n\t}\n\n\tfunction getBalance(address addr) public view returns(uint) {\n\t\treturn balances[addr];\n\t}*/\n}\n",
  "sourcePath": "/home/aman/Desktop/FileManagementApp/contracts/Tasks.sol",
  "compiler": {
    "name": "solc",
    "version": "0.5.16+commit.9c3226ce.Emscripten.clang"
  },
  "schemaVersion": "3.2.0",
  "updatedAt": "2020-06-27T13:56:08.218Z",
  "networkType": "ethereum",
  "devdoc": {
    "methods": {}
  },
  "userdoc": {
    "methods": {}
  }
}